{
  "address": "0x5f7458B0B6D082e3985469D444163a391C9eDf06",
  "abi": [
    {
      "inputs": [
        {
          "internalType": "address",
          "name": "_oldToken",
          "type": "address"
        },
        {
          "internalType": "address",
          "name": "_newToken",
          "type": "address"
        }
      ],
      "stateMutability": "nonpayable",
      "type": "constructor"
    },
    {
      "anonymous": false,
      "inputs": [
        {
          "indexed": false,
          "internalType": "contract IERC20",
          "name": "oldTokenAddress",
          "type": "address"
        }
      ],
      "name": "oldAddress",
      "type": "event"
    },
    {
      "anonymous": false,
      "inputs": [
        {
          "indexed": false,
          "internalType": "uint256",
          "name": "swapAmount",
          "type": "uint256"
        }
      ],
      "name": "swapAmountEmission",
      "type": "event"
    },
    {
      "anonymous": false,
      "inputs": [
        {
          "indexed": false,
          "internalType": "address",
          "name": "destinationAddress",
          "type": "address"
        }
      ],
      "name": "transferData",
      "type": "event"
    },
    {
      "anonymous": false,
      "inputs": [
        {
          "indexed": false,
          "internalType": "address",
          "name": "userAddress",
          "type": "address"
        }
      ],
      "name": "userAddress",
      "type": "event"
    },
    {
      "anonymous": false,
      "inputs": [
        {
          "indexed": false,
          "internalType": "uint256",
          "name": "balance",
          "type": "uint256"
        }
      ],
      "name": "userBalanceEmission",
      "type": "event"
    },
    {
      "inputs": [
        {
          "internalType": "address",
          "name": "tokenAddress",
          "type": "address"
        }
      ],
      "name": "approve",
      "outputs": [],
      "stateMutability": "nonpayable",
      "type": "function"
    },
    {
      "inputs": [],
      "name": "newToken",
      "outputs": [
        {
          "internalType": "contract IERC20",
          "name": "",
          "type": "address"
        }
      ],
      "stateMutability": "view",
      "type": "function"
    },
    {
      "inputs": [],
      "name": "oldToken",
      "outputs": [
        {
          "internalType": "contract IERC20",
          "name": "",
          "type": "address"
        }
      ],
      "stateMutability": "view",
      "type": "function"
    },
    {
      "inputs": [
        {
          "internalType": "uint256",
          "name": "swapAmount",
          "type": "uint256"
        }
      ],
      "name": "swap",
      "outputs": [],
      "stateMutability": "nonpayable",
      "type": "function"
    },
    {
      "inputs": [
        {
          "internalType": "uint256",
          "name": "swapAmount",
          "type": "uint256"
        }
      ],
      "name": "swapDataDump",
      "outputs": [],
      "stateMutability": "nonpayable",
      "type": "function"
    },
    {
      "inputs": [
        {
          "internalType": "uint256",
          "name": "swapAmount",
          "type": "uint256"
        }
      ],
      "name": "userBalances",
      "outputs": [],
      "stateMutability": "nonpayable",
      "type": "function"
    }
  ],
  "transactionHash": "0xd34bce53196a3a3eaf3da0d9c5a336d2b0fef4c50e076b387deb96a2e9932a03",
  "args": [
    "0x241e54490505bc1a9e3bfdb7c79494c52c29e52c",
    "0x6b6e2dE69838dd7f5Cc8b3f7c527Bb70F4f0Ca74"
  ],
  "numDeployments": 12,
  "solcInputHash": "f67eaf3688075642e2e95d709a0695dd",
  "bytecode": "0x608060405234801561001057600080fd5b5060405161083038038061083083398101604081905261002f9161007c565b600080546001600160a01b039384166001600160a01b031991821617909155600180549290931691161790556100af565b80516001600160a01b038116811461007757600080fd5b919050565b6000806040838503121561008f57600080fd5b61009883610060565b91506100a660208401610060565b90509250929050565b610772806100be6000396000f3fe608060405234801561001057600080fd5b50600436106100625760003560e01c8063051475dd146100675780636b3135671461007c57806394b918de1461008f578063b31c710a146100a2578063c42bd05a146100d1578063daea85c5146100e4575b600080fd5b61007a610075366004610681565b6100f7565b005b61007a61008a366004610681565b6101fc565b61007a61009d366004610681565b6103a3565b6000546100b5906001600160a01b031681565b6040516001600160a01b03909116815260200160405180910390f35b6001546100b5906001600160a01b031681565b61007a6100f236600461069a565b6105c7565b6000546040516370a0823160e01b81523360048201526001600160a01b03909116906370a0823190602401602060405180830381865afa15801561013f573d6000803e3d6000fd5b505050506040513d601f19601f8201168201806040525081019061016391906106ca565b60028190556040519081527f799d3b8a6053e2c1cc0735458bb08087d4a6e354123436787716ec0deef28c249060200160405180910390a16040518181527f57033b347e56464e00ff7ff60cf40f88c07b38c29f5fcacc4dd8697ac846fe549060200160405180910390a18060025410156101f95760405162461bcd60e51b81526004016101f0906106e3565b60405180910390fd5b50565b6000546040516370a0823160e01b81523360048201526001600160a01b03909116906370a0823190602401602060405180830381865afa158015610244573d6000803e3d6000fd5b505050506040513d601f19601f8201168201806040525081019061026891906106ca565b600281905581111561028c5760405162461bcd60e51b81526004016101f0906106e3565b7f799d3b8a6053e2c1cc0735458bb08087d4a6e354123436787716ec0deef28c246002546040516102bf91815260200190565b60405180910390a16040518181527f57033b347e56464e00ff7ff60cf40f88c07b38c29f5fcacc4dd8697ac846fe549060200160405180910390a16040513081527f62d3f81412395af3436499201489d8f1b54e94325e7a20aad24a853fe5ad56659060200160405180910390a16000546040516001600160a01b0390911681527feea35dbd7e7f156ded3356e0796f8f4bd0fd8a7b9f3ed73c756405b5c2c7082f9060200160405180910390a16040513381527f360500cc0bb9908acbdda3a2865dcefc4ae2dbe309f4fbedf074eb0a9a9a16ac9060200160405180910390a150565b6000546040516370a0823160e01b81523360048201526001600160a01b03909116906370a0823190602401602060405180830381865afa1580156103eb573d6000803e3d6000fd5b505050506040513d601f19601f8201168201806040525081019061040f91906106ca565b60028190558111156104335760405162461bcd60e51b81526004016101f0906106e3565b7f799d3b8a6053e2c1cc0735458bb08087d4a6e354123436787716ec0deef28c2460025460405161046691815260200190565b60405180910390a16040518181527f57033b347e56464e00ff7ff60cf40f88c07b38c29f5fcacc4dd8697ac846fe549060200160405180910390a16040513081527f62d3f81412395af3436499201489d8f1b54e94325e7a20aad24a853fe5ad56659060200160405180910390a16000546040516001600160a01b0390911681527feea35dbd7e7f156ded3356e0796f8f4bd0fd8a7b9f3ed73c756405b5c2c7082f9060200160405180910390a16040513381527f360500cc0bb9908acbdda3a2865dcefc4ae2dbe309f4fbedf074eb0a9a9a16ac9060200160405180910390a16000546040516323b872dd60e01b8152336004820152306024820152604481018390526001600160a01b03909116906323b872dd906064015b6020604051808303816000875af115801561059f573d6000803e3d6000fd5b505050506040513d601f19601f820116820180604052508101906105c3919061071a565b5050565b69152d02c7e14af6800000600381905560405163095ea7b360e01b815230600482015260248101919091526001600160a01b0382169063095ea7b3906044016020604051808303816000875af1158015610625573d6000803e3d6000fd5b505050506040513d601f19601f82011682018060405250810190610649919061071a565b5060035460405163095ea7b360e01b815233600482015260248101919091526001600160a01b0382169063095ea7b390604401610580565b60006020828403121561069357600080fd5b5035919050565b6000602082840312156106ac57600080fd5b81356001600160a01b03811681146106c357600080fd5b9392505050565b6000602082840312156106dc57600080fd5b5051919050565b6020808252601b908201527f5377617020616d6f756e7420657863656564732062616c616e63650000000000604082015260600190565b60006020828403121561072c57600080fd5b815180151581146106c357600080fdfea2646970667358221220a262588f6051e458a4143340572ec817cd8371e4cec8e620a314095a3b0aa1a264736f6c634300080a0033",
  "devdoc": {
    "kind": "dev",
    "methods": {},
    "version": 1
  },
  "userdoc": {
    "kind": "user",
    "methods": {},
    "version": 1
  },
  "storageLayout": {
    "storage": [
      {
        "astId": 1052,
        "contract": "contracts/TokenFix.sol:TokenFix",
        "label": "oldToken",
        "offset": 0,
        "slot": "0",
        "type": "t_contract(IERC20)77"
      },
      {
        "astId": 1055,
        "contract": "contracts/TokenFix.sol:TokenFix",
        "label": "newToken",
        "offset": 0,
        "slot": "1",
        "type": "t_contract(IERC20)77"
      },
      {
        "astId": 1057,
        "contract": "contracts/TokenFix.sol:TokenFix",
        "label": "userBalance",
        "offset": 0,
        "slot": "2",
        "type": "t_uint256"
      },
      {
        "astId": 1059,
        "contract": "contracts/TokenFix.sol:TokenFix",
        "label": "allowance",
        "offset": 0,
        "slot": "3",
        "type": "t_uint256"
      }
    ],
    "types": {
      "t_contract(IERC20)77": {
        "encoding": "inplace",
        "label": "contract IERC20",
        "numberOfBytes": "20"
      },
      "t_uint256": {
        "encoding": "inplace",
        "label": "uint256",
        "numberOfBytes": "32"
      }
    }
  }
}